:100000000C9434000C9451000C9451000C94510049
:100010000C9451000C9451000C9451000C9451001C
:100020000C9451000C9451000C9451000C9451000C
:100030000C9451000C9451000C9454000C947F00CB
:100040000C94AA000C9451000C9451000C94510093
:100050000C9451000C9451000C9451000C945100DC
:100060000C9451000C94510011241FBECFEFD8E026
:10007000DEBFCDBF11E0A0E0B1E0E0EBF1E002C0F7
:1000800005900D92A630B107D9F721E0A6E0B1E0C6
:1000900001C01D92A930B207E1F70E94D5000C946F
:1000A000D6000C94000008951F920F920FB60F9285
:1000B00011242F933F934F935F936F937F938F936D
:1000C0009F93AF93BF93EF93FF9380910701882392
:1000D00029F0E0910201F09103010995FF91EF9160
:1000E000BF91AF919F918F917F916F915F914F9150
:1000F0003F912F910F900FBE0F901F9018951F9258
:100100000F920FB60F9211242F933F934F935F934B
:100110006F937F938F939F93AF93BF93EF93FF93CF
:1001200080910601882329F0E0910001F0910101FE
:100130000995FF91EF91BF91AF919F918F917F9121
:100140006F915F914F913F912F910F900FBE0F9044
:100150001F9018951F920F920FB60F9211242F9394
:100160003F934F935F936F937F938F939F93AF933F
:10017000BF93EF93FF9380910801882329F0E091CA
:100180000401F09105010995FF91EF91BF91AF91A5
:100190009F918F917F916F915F914F913F912F919F
:1001A0000F900FBE0F901F901895FFCFF894FFCFC0
:0601B00053005300530050
:00000001FF
