S01B000074696D65725F305F646576656C6F706D656E742E7372656357
S11300000C9434000C9451000C9451000C94510045
S11300100C9451000C9451000C9451000C94510018
S11300200C9451000C9451000C9451000C94510008
S11300300C9451000C9451000C948B000C94B60059
S11300400C94E1000C9451000C9451000C94510058
S11300500C9451000C9451000C9451000C945100D8
S11300600C9451000C94510011241FBECFEFD8E022
S1130070DEBFCDBF11E0A0E0B1E0ECE4F2E002C0ED
S113008005900D92A630B107D9F721E0A6E0B1E0C2
S113009001C01D92A930B207E1F70E9421010C941E
S11300A024010C9400000895E4E6F0E080818F7D43
S11300B08083089594B59C7F94BD95B5977F95BD35
S11300C094B5282F2370922B94BD95B58870892BF5
S11300D085BD089587BD089588BD089594B59F731F
S11300E094BD94B5982B94BD8111569A089594B5F6
S11300F09F7C94BD94B5982B94BD8111559A089515
S113010095B59F7895BD95B5982B95BD863011F41E
S113011054985C9808951F920F920FB60F92112471
S11301202F933F934F935F936F937F938F939F93FB
S1130130AF93BF93EF93FF9380910701882329F036
S1130140E0910201F09103010995FF91EF91BF91B4
S1130150AF919F918F917F916F915F914F913F915B
S11301602F910F900FBE0F901F9018951F920F9212
S11301700FB60F9211242F933F934F935F936F9376
S11301807F938F939F93AF93BF93EF93FF9380914C
S11301900601882329F0E0910001F09101010995FD
S11301A0FF91EF91BF91AF919F918F917F916F914B
S11301B05F914F913F912F910F900FBE0F901F9021
S11301C018951F920F920FB60F9211242F933F93FD
S11301D04F935F936F937F938F939F93AF93BF934B
S11301E0EF93FF9380910801882329F0E0910401A3
S11301F0F09105010995FF91EF91BF91AF919F9106
S11302008F917F916F915F914F913F912F910F90BB
S11302100FBE0F901F9018950E94540080E00E941A
S11302205A0085E00E94800080E40E946E0080E114
S11302300E94770080E80E946A0080E40E946C00BB
S10F024008950E940C01FFCFF894FFCF3A
S109024C530053005300AF
S9030000FC
